{
  "abi": [
    {
      "inputs": [
        {
          "internalType": "address",
          "name": "_owner",
          "type": "address"
        },
        {
          "internalType": "contract Authority",
          "name": "_authority",
          "type": "address"
        }
      ],
      "stateMutability": "nonpayable",
      "type": "constructor"
    },
    {
      "anonymous": false,
      "inputs": [
        {
          "indexed": true,
          "internalType": "address",
          "name": "user",
          "type": "address"
        },
        {
          "indexed": true,
          "internalType": "contract Authority",
          "name": "newAuthority",
          "type": "address"
        }
      ],
      "name": "AuthorityUpdated",
      "type": "event"
    },
    {
      "anonymous": false,
      "inputs": [
        {
          "indexed": true,
          "internalType": "address",
          "name": "user",
          "type": "address"
        },
        {
          "indexed": true,
          "internalType": "contract ERC20",
          "name": "collateral",
          "type": "address"
        },
        {
          "indexed": false,
          "internalType": "uint256",
          "name": "newBoostCap",
          "type": "uint256"
        }
      ],
      "name": "BoostCapUpdatedForCollateral",
      "type": "event"
    },
    {
      "anonymous": false,
      "inputs": [
        {
          "indexed": true,
          "internalType": "address",
          "name": "user",
          "type": "address"
        },
        {
          "indexed": true,
          "internalType": "contract ERC4626",
          "name": "vault",
          "type": "address"
        },
        {
          "indexed": false,
          "internalType": "uint256",
          "name": "newBoostCap",
          "type": "uint256"
        }
      ],
      "name": "BoostCapUpdatedForVault",
      "type": "event"
    },
    {
      "anonymous": false,
      "inputs": [
        {
          "indexed": true,
          "internalType": "address",
          "name": "user",
          "type": "address"
        },
        {
          "indexed": false,
          "internalType": "bool",
          "name": "frozen",
          "type": "bool"
        }
      ],
      "name": "FreezeStatusUpdated",
      "type": "event"
    },
    {
      "anonymous": false,
      "inputs": [
        {
          "indexed": true,
          "internalType": "address",
          "name": "user",
          "type": "address"
        },
        {
          "indexed": true,
          "internalType": "address",
          "name": "newOwner",
          "type": "address"
        }
      ],
      "name": "OwnerUpdated",
      "type": "event"
    },
    {
      "inputs": [],
      "name": "REVERSE_REGISTRAR",
      "outputs": [
        {
          "internalType": "contract IReverseRegistrar",
          "name": "",
          "type": "address"
        }
      ],
      "stateMutability": "view",
      "type": "function"
    },
    {
      "inputs": [],
      "name": "authority",
      "outputs": [
        {
          "internalType": "contract Authority",
          "name": "",
          "type": "address"
        }
      ],
      "stateMutability": "view",
      "type": "function"
    },
    {
      "inputs": [
        {
          "internalType": "contract TurboSafe",
          "name": "safe",
          "type": "address"
        },
        {
          "internalType": "contract ERC20",
          "name": "collateral",
          "type": "address"
        },
        {
          "internalType": "contract ERC4626",
          "name": "vault",
          "type": "address"
        },
        {
          "internalType": "uint256",
          "name": "feiAmount",
          "type": "uint256"
        },
        {
          "internalType": "uint256",
          "name": "newTotalBoostedForVault",
          "type": "uint256"
        },
        {
          "internalType": "uint256",
          "name": "newTotalBoostedAgainstCollateral",
          "type": "uint256"
        }
      ],
      "name": "canSafeBoostVault",
      "outputs": [
        {
          "internalType": "bool",
          "name": "",
          "type": "bool"
        }
      ],
      "stateMutability": "view",
      "type": "function"
    },
    {
      "inputs": [],
      "name": "frozen",
      "outputs": [
        {
          "internalType": "bool",
          "name": "",
          "type": "bool"
        }
      ],
      "stateMutability": "view",
      "type": "function"
    },
    {
      "inputs": [
        {
          "internalType": "contract ERC20",
          "name": "",
          "type": "address"
        }
      ],
      "name": "getBoostCapForCollateral",
      "outputs": [
        {
          "internalType": "uint256",
          "name": "",
          "type": "uint256"
        }
      ],
      "stateMutability": "view",
      "type": "function"
    },
    {
      "inputs": [
        {
          "internalType": "contract ERC4626",
          "name": "",
          "type": "address"
        }
      ],
      "name": "getBoostCapForVault",
      "outputs": [
        {
          "internalType": "uint256",
          "name": "",
          "type": "uint256"
        }
      ],
      "stateMutability": "view",
      "type": "function"
    },
    {
      "inputs": [],
      "name": "getBoostableVaults",
      "outputs": [
        {
          "internalType": "contract ERC4626[]",
          "name": "",
          "type": "address[]"
        }
      ],
      "stateMutability": "view",
      "type": "function"
    },
    {
      "inputs": [],
      "name": "owner",
      "outputs": [
        {
          "internalType": "address",
          "name": "",
          "type": "address"
        }
      ],
      "stateMutability": "view",
      "type": "function"
    },
    {
      "inputs": [
        {
          "internalType": "contract Authority",
          "name": "newAuthority",
          "type": "address"
        }
      ],
      "name": "setAuthority",
      "outputs": [],
      "stateMutability": "nonpayable",
      "type": "function"
    },
    {
      "inputs": [
        {
          "internalType": "contract ERC20",
          "name": "collateral",
          "type": "address"
        },
        {
          "internalType": "uint256",
          "name": "newBoostCap",
          "type": "uint256"
        }
      ],
      "name": "setBoostCapForCollateral",
      "outputs": [],
      "stateMutability": "nonpayable",
      "type": "function"
    },
    {
      "inputs": [
        {
          "internalType": "contract ERC4626",
          "name": "vault",
          "type": "address"
        },
        {
          "internalType": "uint256",
          "name": "newBoostCap",
          "type": "uint256"
        }
      ],
      "name": "setBoostCapForVault",
      "outputs": [],
      "stateMutability": "nonpayable",
      "type": "function"
    },
    {
      "inputs": [
        {
          "internalType": "string",
          "name": "name",
          "type": "string"
        }
      ],
      "name": "setENSName",
      "outputs": [],
      "stateMutability": "nonpayable",
      "type": "function"
    },
    {
      "inputs": [
        {
          "internalType": "bool",
          "name": "freeze",
          "type": "bool"
        }
      ],
      "name": "setFreezeStatus",
      "outputs": [],
      "stateMutability": "nonpayable",
      "type": "function"
    },
    {
      "inputs": [
        {
          "internalType": "address",
          "name": "newOwner",
          "type": "address"
        }
      ],
      "name": "setOwner",
      "outputs": [],
      "stateMutability": "nonpayable",
      "type": "function"
    }
  ],
  "bytecode": {
    "object": "0x608060405234801561001057600080fd5b50604051610c77380380610c7783398101604081905261002f916100e1565b600080546001600160a01b03199081166001600160a01b0385811691821784556001805490931690851617909155604051849284929133917f8292fce18fa69edf4db7b94ea2e58241df0ae57f97e0a6c9b29067028bf92d7691a36040516001600160a01b0382169033907fa3396fd7f6e0a21b50e5089d2da70d5ac0a3bbbd1f617a93f134b7638998019890600090a35050505061011b565b6001600160a01b03811681146100de57600080fd5b50565b600080604083850312156100f457600080fd5b82516100ff816100c9565b6020840151909250610110816100c9565b809150509250929050565b610b4d8061012a6000396000f3fe608060405234801561001057600080fd5b50600436106100ea5760003560e01c806378ab9ea81161008c578063952899fc11610066578063952899fc1461020b5780639d4c2af714610226578063aafe3c7514610239578063bf7e214f1461024c57600080fd5b806378ab9ea8146101ad5780637a9e5e4b146101cd5780638da5cb5b146101e057600080fd5b806313af4035116100c857806313af403514610146578063401e11c51461015957806341edb7751461018757806377dd4ac31461019a57600080fd5b80630225c09e146100ef578063054f7d9c1461010d5780630ae0f6cb14610131575b600080fd5b6100f761025f565b604051610104919061082d565b60405180910390f35b60015461012190600160a01b900460ff1681565b6040519015158152602001610104565b61014461013f366004610892565b6102c1565b005b6101446101543660046108be565b610357565b6101796101673660046108be565b60036020526000908152604090205481565b604051908152602001610104565b6101446101953660046108f0565b6103d4565b6101446101a8366004610923565b610460565b6101796101bb3660046108be565b60046020526000908152604090205481565b6101446101db3660046108be565b610510565b6000546101f3906001600160a01b031681565b6040516001600160a01b039091168152602001610104565b6101f373084b1c3c81545d370f3634392de611caabff814881565b6101216102343660046109d4565b6105fa565b610144610247366004610892565b61065e565b6001546101f3906001600160a01b031681565b606060028054806020026020016040519081016040528092919081815260200182805480156102b757602002820191906000526020600020905b81546001600160a01b03168152600190910190602001808311610299575b5050505050905090565b6102d7336000356001600160e01b031916610783565b6102fc5760405162461bcd60e51b81526004016102f390610a39565b60405180910390fd5b6001600160a01b038216600081815260046020526040908190208390555133907f67e4d5adfb8b1297b3a6aefe54aef4a4b06b32d69d207aeebb98d6bdce4383ea9061034b9085815260200190565b60405180910390a35050565b61036d336000356001600160e01b031916610783565b6103895760405162461bcd60e51b81526004016102f390610a39565b600080546001600160a01b0319166001600160a01b0383169081178255604051909133917f8292fce18fa69edf4db7b94ea2e58241df0ae57f97e0a6c9b29067028bf92d769190a350565b6103ea336000356001600160e01b031916610783565b6104065760405162461bcd60e51b81526004016102f390610a39565b60018054821515600160a01b0260ff60a01b1990911617905560405133907f2fe4ac858c92a82277540eb653993c6d95d8a4ac21d4d2710ef66d944e66c2e69061045590841515815260200190565b60405180910390a250565b610476336000356001600160e01b031916610783565b6104925760405162461bcd60e51b81526004016102f390610a39565b60405163c47f002760e01b815273084b1c3c81545d370f3634392de611caabff81489063c47f0027906104c9908490600401610a5f565b6020604051808303816000875af11580156104e8573d6000803e3d6000fd5b505050506040513d601f19601f8201168201806040525081019061050c9190610ab4565b5050565b6000546001600160a01b03163314806105a5575060015460405163b700961360e01b81526001600160a01b039091169063b70096139061056490339030906001600160e01b03196000351690600401610acd565b602060405180830381865afa158015610581573d6000803e3d6000fd5b505050506040513d601f19601f820116820180604052508101906105a59190610afa565b6105ae57600080fd5b600180546001600160a01b0319166001600160a01b03831690811790915560405133907fa3396fd7f6e0a21b50e5089d2da70d5ac0a3bbbd1f617a93f134b7638998019890600090a350565b600154600090600160a01b900460ff1615801561062f57506001600160a01b0385166000908152600360205260409020548311155b801561065357506001600160a01b0386166000908152600460205260409020548211155b979650505050505050565b610674336000356001600160e01b031916610783565b6106905760405162461bcd60e51b81526004016102f390610a39565b806106cb5760405162461bcd60e51b815260206004820152600b60248201526a636170206973207a65726f60a81b60448201526064016102f3565b6001600160a01b03821660009081526003602052604090205461073457600280546001810182556000919091527f405787fa12a823e0f2b7631cc41b3ba8828b3321ca811111fa75cd3aa3bb5ace0180546001600160a01b0319166001600160a01b0384161790555b6001600160a01b038216600081815260036020526040908190208390555133907f3d9639f4ecd206b5c3026887333172ab506945b37637997045cffd5f260a71369061034b9085815260200190565b6001546000906001600160a01b0316801580159061080d575060405163b700961360e01b81526001600160a01b0382169063b7009613906107cc90879030908890600401610acd565b602060405180830381865afa1580156107e9573d6000803e3d6000fd5b505050506040513d601f19601f8201168201806040525081019061080d9190610afa565b8061082557506000546001600160a01b038581169116145b949350505050565b6020808252825182820181905260009190848201906040850190845b8181101561086e5783516001600160a01b031683529284019291840191600101610849565b50909695505050505050565b6001600160a01b038116811461088f57600080fd5b50565b600080604083850312156108a557600080fd5b82356108b08161087a565b946020939093013593505050565b6000602082840312156108d057600080fd5b81356108db8161087a565b9392505050565b801515811461088f57600080fd5b60006020828403121561090257600080fd5b81356108db816108e2565b634e487b7160e01b600052604160045260246000fd5b60006020828403121561093557600080fd5b813567ffffffffffffffff8082111561094d57600080fd5b818401915084601f83011261096157600080fd5b8135818111156109735761097361090d565b604051601f8201601f19908116603f0116810190838211818310171561099b5761099b61090d565b816040528281528760208487010111156109b457600080fd5b826020860160208301376000928101602001929092525095945050505050565b60008060008060008060c087890312156109ed57600080fd5b86356109f88161087a565b95506020870135610a088161087a565b94506040870135610a188161087a565b959894975094956060810135955060808101359460a0909101359350915050565b6020808252600c908201526b15539055551213d49256915160a21b604082015260600190565b600060208083528351808285015260005b81811015610a8c57858101830151858201604001528201610a70565b81811115610a9e576000604083870101525b50601f01601f1916929092016040019392505050565b600060208284031215610ac657600080fd5b5051919050565b6001600160a01b0393841681529190921660208201526001600160e01b0319909116604082015260600190565b600060208284031215610b0c57600080fd5b81516108db816108e256fea2646970667358221220f491f9734ad617a4c663c11a758895e93c68e117ab611e0f03070aa65269f5d364736f6c634300080a0033",
    "linkReferences": {}
  }
}